{
  "contractName": "Power",
  "abi": [
    {
      "inputs": [
        {
          "name": "prosumer",
          "type": "address"
        }
      ],
      "payable": false,
      "stateMutability": "nonpayable",
      "type": "constructor"
    },
    {
      "constant": false,
      "inputs": [
        {
          "name": "time",
          "type": "uint256"
        }
      ],
      "name": "set_rate",
      "outputs": [],
      "payable": false,
      "stateMutability": "nonpayable",
      "type": "function"
    },
    {
      "constant": true,
      "inputs": [],
      "name": "get_rate",
      "outputs": [
        {
          "name": "",
          "type": "uint256"
        }
      ],
      "payable": false,
      "stateMutability": "view",
      "type": "function"
    },
    {
      "constant": false,
      "inputs": [
        {
          "name": "prosumer",
          "type": "address"
        },
        {
          "name": "energy_generated",
          "type": "uint256"
        }
      ],
      "name": "set_prosumer",
      "outputs": [],
      "payable": false,
      "stateMutability": "nonpayable",
      "type": "function"
    },
    {
      "constant": false,
      "inputs": [
        {
          "name": "consumer",
          "type": "address"
        },
        {
          "name": "prosumer",
          "type": "address"
        },
        {
          "name": "rate",
          "type": "uint256"
        }
      ],
      "name": "token_transfer",
      "outputs": [],
      "payable": true,
      "stateMutability": "payable",
      "type": "function"
    },
    {
      "constant": false,
      "inputs": [],
      "name": "change_rate",
      "outputs": [],
      "payable": false,
      "stateMutability": "nonpayable",
      "type": "function"
    },
    {
      "constant": true,
      "inputs": [],
      "name": "get_user_information",
      "outputs": [
        {
          "name": "",
          "type": "uint256"
        },
        {
          "name": "",
          "type": "uint256"
        },
        {
          "name": "",
          "type": "uint256"
        },
        {
          "name": "",
          "type": "uint256"
        },
        {
          "name": "",
          "type": "uint256"
        },
        {
          "name": "",
          "type": "uint256"
        }
      ],
      "payable": false,
      "stateMutability": "view",
      "type": "function"
    },
    {
      "constant": true,
      "inputs": [
        {
          "name": "prosumer",
          "type": "address"
        }
      ],
      "name": "get_energy_produced",
      "outputs": [
        {
          "name": "",
          "type": "uint256"
        }
      ],
      "payable": false,
      "stateMutability": "view",
      "type": "function"
    },
    {
      "constant": true,
      "inputs": [],
      "name": "getProduction",
      "outputs": [
        {
          "name": "",
          "type": "uint256"
        }
      ],
      "payable": false,
      "stateMutability": "view",
      "type": "function"
    },
    {
      "constant": true,
      "inputs": [],
      "name": "getCurrent_usage",
      "outputs": [
        {
          "name": "",
          "type": "uint256"
        }
      ],
      "payable": false,
      "stateMutability": "view",
      "type": "function"
    },
    {
      "constant": true,
      "inputs": [],
      "name": "getAmount_spent_this_month",
      "outputs": [
        {
          "name": "",
          "type": "uint256"
        }
      ],
      "payable": false,
      "stateMutability": "view",
      "type": "function"
    },
    {
      "constant": true,
      "inputs": [],
      "name": "getAmount_saved_this_month",
      "outputs": [
        {
          "name": "",
          "type": "uint256"
        }
      ],
      "payable": false,
      "stateMutability": "view",
      "type": "function"
    }
  ],
  "bytecode": "0x6060604052341561000f57600080fd5b604051602080610b368339810160405280805190602001909190505060016000819055506002600181905550601d600481905550600a600681905550601b6005819055506001600781905550600960088190555060005460028190555033600360006101000a81548173ffffffffffffffffffffffffffffffffffffffff021916908373ffffffffffffffffffffffffffffffffffffffff160217905550620186a060096000600360009054906101000a900473ffffffffffffffffffffffffffffffffffffffff1673ffffffffffffffffffffffffffffffffffffffff1673ffffffffffffffffffffffffffffffffffffffff168152602001908152602001600020600001819055506000600960008373ffffffffffffffffffffffffffffffffffffffff1673ffffffffffffffffffffffffffffffffffffffff16815260200190815260200160002060000181905550506109c5806101716000396000f3006060604052600436106100af576000357c0100000000000000000000000000000000000000000000000000000000900463ffffffff1680632640f34f146100b45780634607aef214610100578063533178e51461012957806360acf88814610152578063653d41b2146101a8578063691427ba146101d15780638e4dfebb146101e65780638eb58ac91461020f578063d02f06fa1461025c578063d301eee51461029e578063d4387a99146102c7575b600080fd5b34156100bf57600080fd5b6100c76102ea565b60405180878152602001868152602001858152602001848152602001838152602001828152602001965050505050505060405180910390f35b341561010b57600080fd5b610113610499565b6040518082815260200191505060405180910390f35b341561013457600080fd5b61013c6104e3565b6040518082815260200191505060405180910390f35b6101a6600480803573ffffffffffffffffffffffffffffffffffffffff1690602001909190803573ffffffffffffffffffffffffffffffffffffffff169060200190919080359060200190919050506104ed565b005b34156101b357600080fd5b6101bb610762565b6040518082815260200191505060405180910390f35b34156101dc57600080fd5b6101e46107ac565b005b34156101f157600080fd5b6101f96107f6565b6040518082815260200191505060405180910390f35b341561021a57600080fd5b610246600480803573ffffffffffffffffffffffffffffffffffffffff16906020019091905050610840565b6040518082815260200191505060405180910390f35b341561026757600080fd5b61029c600480803573ffffffffffffffffffffffffffffffffffffffff1690602001909190803590602001909190505061088c565b005b34156102a957600080fd5b6102b161091f565b6040518082815260200191505060405180910390f35b34156102d257600080fd5b6102e86004808035906020019091905050610969565b005b600080600080600080600960003373ffffffffffffffffffffffffffffffffffffffff1673ffffffffffffffffffffffffffffffffffffffff16815260200190815260200160002060000154600960003373ffffffffffffffffffffffffffffffffffffffff1673ffffffffffffffffffffffffffffffffffffffff16815260200190815260200160002060010154600960003373ffffffffffffffffffffffffffffffffffffffff1673ffffffffffffffffffffffffffffffffffffffff16815260200190815260200160002060020154600960003373ffffffffffffffffffffffffffffffffffffffff1673ffffffffffffffffffffffffffffffffffffffff16815260200190815260200160002060030154600960003373ffffffffffffffffffffffffffffffffffffffff1673ffffffffffffffffffffffffffffffffffffffff16815260200190815260200160002060040154600960003373ffffffffffffffffffffffffffffffffffffffff1673ffffffffffffffffffffffffffffffffffffffff16815260200190815260200160002060050154955095509550955095509550909192939495565b6000600960003373ffffffffffffffffffffffffffffffffffffffff1673ffffffffffffffffffffffffffffffffffffffff16815260200190815260200160002060040154905090565b6000600254905090565b6000600960008473ffffffffffffffffffffffffffffffffffffffff1673ffffffffffffffffffffffffffffffffffffffff16815260200190815260200160002060010154600254029050600960008573ffffffffffffffffffffffffffffffffffffffff1673ffffffffffffffffffffffffffffffffffffffff16815260200190815260200160002060000154811080156105cb57506000600960008573ffffffffffffffffffffffffffffffffffffffff1673ffffffffffffffffffffffffffffffffffffffff16815260200190815260200160002060010154115b1561075c5780600960008573ffffffffffffffffffffffffffffffffffffffff1673ffffffffffffffffffffffffffffffffffffffff1681526020019081526020016000206000016000828254019250508190555080600960008673ffffffffffffffffffffffffffffffffffffffff1673ffffffffffffffffffffffffffffffffffffffff1681526020019081526020016000206000016000828254039250508190555081600960008673ffffffffffffffffffffffffffffffffffffffff1673ffffffffffffffffffffffffffffffffffffffff16815260200190815260200160002060030181905550600854600960008673ffffffffffffffffffffffffffffffffffffffff1673ffffffffffffffffffffffffffffffffffffffff16815260200190815260200160002060040160008282540192505081905550600754600960008673ffffffffffffffffffffffffffffffffffffffff1673ffffffffffffffffffffffffffffffffffffffff168152602001908152602001600020600501600082825401925050819055505b50505050565b6000600960003373ffffffffffffffffffffffffffffffffffffffff1673ffffffffffffffffffffffffffffffffffffffff16815260200190815260200160002060030154905090565b6000600960003373ffffffffffffffffffffffffffffffffffffffff1673ffffffffffffffffffffffffffffffffffffffff16815260200190815260200160002060020181905550565b6000600960003373ffffffffffffffffffffffffffffffffffffffff1673ffffffffffffffffffffffffffffffffffffffff16815260200190815260200160002060010154905090565b6000600960008373ffffffffffffffffffffffffffffffffffffffff1673ffffffffffffffffffffffffffffffffffffffff168152602001908152602001600020600101549050919050565b80600960008473ffffffffffffffffffffffffffffffffffffffff1673ffffffffffffffffffffffffffffffffffffffff168152602001908152602001600020600101819055506000600960008473ffffffffffffffffffffffffffffffffffffffff1673ffffffffffffffffffffffffffffffffffffffff168152602001908152602001600020600201819055505050565b6000600960003373ffffffffffffffffffffffffffffffffffffffff1673ffffffffffffffffffffffffffffffffffffffff16815260200190815260200160002060050154905090565b600e811015806109795750601481105b1561098c57600154600281905550610996565b6000546002819055505b505600a165627a7a723058207dd4fe3158a13e76352a6f0289c48dfdd9b8f6ceae2b3a3d8c2cd844dd08ebdb0029",
  "source": "pragma solidity ^0.4.18;\n\ncontract Power {\n    //uint energy_generated = 100; //(watts) hard coded amount of electricity generated\n    uint base_rate;\n    uint peak_rate;\n    uint current_rate;\n    address consumer_addr;\n    uint efficiency;\n    uint energy_current_usage;\n    uint energy_saved_usage;\n    uint dollar_saved_usage;\n    uint dollar_spent_usage;\n\n    struct User {\n      uint token_balance;\n      uint production_rate;\n      uint consumption_rate;\n      uint current_usage;\n      uint get_amount_spent_this_month;\n      uint get_amount_saved_this_month;\n    }\n\n    mapping(address => User) user_list;\n\n    //  HARD CODED CONSUMER AND prosumerS - perhaps what we could do, is find all the people who are producing excess energy, (check if they want to sell) and exchange it with people who are not producing excess energ\n    // ADD EXTRA VARIABLE FOR o GENERATED\n    function Power(address prosumer) public {\n      base_rate = 1; //cents/kwh, originally 15.86. However, Solidity does not let you have decimal points.\n      peak_rate = 2; //cents/kwh, originally 58.33 \" \" \"\n      efficiency = 29;\n      energy_saved_usage = 10;\n      energy_current_usage = 27;\n      dollar_saved_usage = 1;\n      dollar_spent_usage = 9;\n      current_rate = base_rate;\n      consumer_addr = msg.sender; // we are the consumer\n      user_list[consumer_addr].token_balance = 100000;\n      user_list[prosumer].token_balance = 0;\n\n    }\n\n    function set_rate (uint time) public {\n      if (time >= 14 || time < 20) {\n        current_rate = peak_rate;\n      } else {\n        current_rate = base_rate;\n      }\n    }\n\n    function get_rate() constant public returns(uint) {\n        return current_rate;\n    }\n\n    // Set prosumer address\n    function set_prosumer(address prosumer, uint energy_generated) public {\n      user_list[prosumer].production_rate = energy_generated;\n      user_list[prosumer].consumption_rate = 0;\n    }\n\n    // Function: Transfers tokens from consumer to prosumer if the consumer has enough tokens. Transfer energy to prosumer.\n    function token_transfer(address consumer, address prosumer, uint rate) payable public {\n      uint cost = current_rate * user_list[prosumer].production_rate;\n\n      // checks if there's enough tokens in wallet, and checks that producer is producing enough energy\n      if ((cost < user_list[consumer].token_balance) && (user_list[prosumer].production_rate > 0)) {\n        user_list[prosumer].token_balance += cost;\n        user_list[consumer].token_balance -= cost;\n\n        // Updating the consumption rate of the consumer and the production rate of the prosumer, assuming that the consumer consumes ALL of the energy produced\n        // user_list[consumer].consumption_rate += user_list[prosumer].production_rate;\n\n        user_list[consumer].current_usage = rate;\n\n        user_list[consumer].get_amount_spent_this_month += dollar_spent_usage;\n        user_list[consumer].get_amount_saved_this_month += dollar_saved_usage;\n      }\n    }\n\n    function change_rate() public {\n      user_list[msg.sender].consumption_rate = 0;\n    }\n\n    function get_user_information() public view returns (uint, uint, uint, uint, uint, uint) {\n      return (user_list[msg.sender].token_balance, user_list[msg.sender].production_rate, user_list[msg.sender].consumption_rate, user_list[msg.sender].current_usage, user_list[msg.sender].get_amount_spent_this_month, user_list[msg.sender].get_amount_saved_this_month);\n    }\n\n    // Function: Return energy production rate of prosumer\n    function get_energy_produced(address prosumer) public view returns(uint) {\n      return user_list[prosumer].production_rate;\n    }\n\n    function getProduction() public view returns(uint){\n      return (user_list[msg.sender].production_rate);\n    }\n\n    function getCurrent_usage() public view returns(uint){\n      return (user_list[msg.sender].current_usage);\n    }\n\n    function getAmount_spent_this_month() public view returns(uint){\n      return (user_list[msg.sender].get_amount_spent_this_month);\n    }\n\n    function getAmount_saved_this_month() public view returns(uint){\n      return (user_list[msg.sender].get_amount_saved_this_month);\n    }\n\n}\n",
  "sourcePath": "/Users/sing/accenture/bootcamp/smart-meter-clone/contracts/Power.sol",
  "compiler": {
    "name": "solc",
    "version": "0.4.19+commit.c4cbbb05.Emscripten.clang"
  },
  "schemaVersion": "1.0.1",
  "updatedAt": "2018-02-21T14:53:12.056Z"
}